:0400000080314228E1
:100008007E14803120007F08F5000B1D3428013054
:10001800F6070030F73D0B1195017708803AF0009C
:1000280081307002031D1A282C307602031C3428F4
:100038007908F1007808F0007008F100F001700804
:1000480020001607F3007108173DF4007308C2007A
:100058007408C30097019601F801F901F601F70148
:100068002000111C3E281110970196010130F80755
:100078000030F93D7508FF007E10090080314428E2
:10008800F601F701F801F9012000C201C3017E1051
:1000980020008131072930302000B2003208B60034
:1000A80020002F08B3002E08B200AE0A0319AF0AC9
:1000B80032088400330885000008B4003408BB0007
:1000C8003B080319080025303B06031970283B0834
:1000D8008131E521803154282000B7012F08B30071
:1000E8002E08B200AE0A0319AF0A3208840033089A
:1000F80085000008BB00003A03190629643A031971
:1001080089280D3A0319892854283608860087015A
:10011800403FB900413FBA000230B2003208B6078A
:10012800BA1F9F280330B2003208B704B909BA09C8
:10013800B90A0319BA0ABB01BB0A05303B06031901
:10014800C4283B08B200B301B235B30DAA30320758
:1001580084008130333D8500003FB400013FB50085
:1001680035083A02031DBA2834083902031CC4288A
:100178000130B2003208BB0705303B06031DA52835
:10018800370803390319CC282D308131E521803116
:1001980020003B08B2003208B800FF302000B2004F
:1001A8003208B807380A031954280A30A800003062
:1001B800A9003808B200B301B235B30DAA3032072E
:1001C80084008130333D8500003FA000013FA1003D
:1001D8003A08A3003908A200813148218031200063
:1001E8002108AB002008AA0081317D218031200040
:1001F8002808303EB4003408BB003B088131E521B3
:100208008031D12808002000C201C301103021002C
:100218008C0023008C01303021008D0023008D01DB
:10022800FF3021008E0023008E0120008D120D1258
:100238008C128131C6218131220097161712813123
:10024800F42181318131ED2181318131D721813111
:1002580020008C128C16B430AE008130AF004308F9
:10026800B1004208B00080314F20813106302000B3
:10027800C1001330C000AD30890B4029C00B4029A4
:10028800C10B402900322C292000A601A701200813
:10029800210403197829A501A50AA11B5D290130AC
:1002A800A035A10D890B54290130A4002408A50705
:1002B80051290130A635A70D890B5E292108230293
:1002C800031D682920082202031C6F292008A202A6
:1002D8002108A33B26140130A136A00C890B7029F4
:1002E8000130A502031D5D292708A1002608A000EA
:1002F80008002000280829040319A529AD01AD0A22
:10030800A91B90290130A835A90D890B872901302F
:10031800AC002C08AD07842929082B02031D962957
:1003280028082A02031C9C292808AA022908AB3B92
:100338000130A936A80C890B9D290130AD02031D97
:1003480090292B08A9002A08A800080001340034C5
:100358000A34003464340034E83403341034273465
:100368004634723465347134753465346E346334AC
:10037800793420343D3420342534643420340D3429
:100388000A34003421008E160E16003023009C001B
:1003980019309B0090309D0024309E009E161E123E
:1003A8009D171E15080085302000980097019601BA
:1003B800111021001114E0308B00A13020009900A9
:1003C80008002000A000111EE729200823009A0039
:1003D80008006A3021009900C53095000B1108000B
:0C03E800843022009D001D159D170800A8
:020000040001F9
:04000E00E4CFFFDE5E
:00000001FF
